:020000040800F2
:1000000000400020AD240008FD240008FD24000865
:1000100000000000000000000000000000000000E0
:10002000000000000000000000000000451A000869
:100030000000000000000000B11A000839020008AA
:10004000FD240008FD240008FD240008FD2400080C
:10005000FD240008FD240008FD240008FD240008FC
:10006000FD240008FD240008FD240008FD240008EC
:10007000FD240008FD240008FD240008FD240008DC
:10008000FD240008FD240008FD240008FD240008CC
:10009000FD240008FD240008FD240008FD240008BC
:1000A000FD240008FD240008FD240008FD240008AC
:1000B000FD240008FD240008FD240008FD2400089C
:1000C00010B5064C2378002B07D1054B002B02D02E
:1000D000044800E000BF0123237010BD6C00002025
:1000E00000000000182F0008084B10B5002B03D0AB
:1000F0000749084800E000BF07480368002B00D10B
:1001000010BD064B002BFBD09847F9E7000000001C
:1001100070000020182F00086C0000200000000074
:10012000002243088B4274D303098B425FD3030A36
:100130008B4244D3030B8B4228D3030C8B420DD349
:10014000FF22090212BA030C8B4202D312120902D7
:1001500065D0030B8B4219D300E0090AC30B8B4215
:1001600001D3CB03C01A5241830B8B4201D38B03C3
:10017000C01A5241430B8B4201D34B03C01A524168
:10018000030B8B4201D30B03C01A5241C30A8B42AB
:1001900001D3CB02C01A5241830A8B4201D38B0296
:1001A000C01A5241430A8B4201D34B02C01A52413A
:1001B000030A8B4201D30B02C01A5241CDD2C309AC
:1001C0008B4201D3CB01C01A524183098B4201D328
:1001D0008B01C01A524143098B4201D34B01C01A13
:1001E000524103098B4201D30B01C01A5241C3088B
:1001F0008B4201D3CB00C01A524183088B4201D3FA
:100200008B00C01A524143088B4201D34B00C01AE5
:100210005241411A00D20146524110467047FFE751
:1002200001B5002000F006F802BDC0460029F7D055
:1002300076E770477047C04610B502F029F901F023
:10024000C6FC10BD10B50D480D4B036096239B01F5
:10025000436000238360C36003610C2242618361B9
:10026000C3610362436201F08DFF002800D110BD1D
:100270001721044800F06DF8F9E7C046D80D0020BA
:1002800000440040642F000810B5034B0D220349C1
:10029000034801F0C3FE10BDFFFF0000702F0008EF
:1002A000D80D002010B5140092B2FA239B00044828
:1002B00001F0B4FE002801D0002010BD2000FCE7B2
:1002C000D80D002030B589B01C4B5969802000033F
:1002D000014359615A6902400092009A596980208D
:1002E000C003014359615A6902400192019A5A6957
:1002F000802189020A435A615B690B400293029B89
:100300009025ED0500222021280002F041F88023ED
:100310009B0103930A4B04930024059403A9094805
:1003200001F068FF202303931F3B04930594069478
:1003300003A9280001F05EFF09B030BD00100240A3
:10034000000021100008004810B5012001F037FC22
:10035000FBE7FEE700B587B02248234B036000238C
:1003600043607F2282608032C260036143618361A7
:1003700000F046FD002828D101A900230B704B7026
:100380008B70CB600B610122164800F0A7FD00289E
:100390001FD101236A461370537093700023D370EA
:1003A000012269460F4800F017FE002815D10021F0
:1003B0000C4800F0A1F80D4B984204D01A0000211F
:1003C000084800F093F807B000BD76210848FFF711
:1003D000C0FF82210648FFF7BCFF8C210448FFF7CD
:1003E000B8FFC0464C0E002000280040F23200004A
:1003F000802F000800B599B00A230B93093B0E9398
:1004000010220F9212930E3A149280221202159229
:10041000A0229203169217930BA800F03BFF00282E
:100420002BD107230793053B0893002309930A93D5
:10043000012107A801F0F4F9002822D1154B0093FF
:100440000023039380239B000193684600F05AF831
:1004500000281AD101F0A6FAFA218900FFF760FE00
:1004600000F06CFC042000F085FC00220321012038
:10047000404200F031FC19B000BD40210648FFF7B2
:1004800068FF4D210448FFF764FF55210248FFF73C
:1004900060FFC04602000100802F000830B587B021
:1004A00001F0E6FFFFF7A6FFFFF70CFFFFF7CAFE1C
:1004B000FFF750FFFFF7E8FE094802F0ADF801A88A
:1004C000084903000A0032CA32C312CA12C300210B
:1004D00001F05BFB044B186001F052FBFEE7C046E5
:1004E0008C2F0008302F0008480E0020036850337E
:1004F000890059180A6070470368503389005918F9
:100500000868704770B582B004000368DB0335D516
:100510004B4BDB69DB0066D4494AD169802040053A
:100520000143D161D36903400193019B0125454BF0
:100530001B68DB0559D5424B1B6AC0229200134051
:1005400013D061680A4093420FD03D4B186A3E4A6F
:1005500002401E6A8021490231431962196A3B4EEA
:10056000314019621A62C30753D4354A136A3649B7
:100570000B4061680B431362012D59D02368DB07E0
:1005800006D52F4A136B03218B43A1680B431363DA
:1005900023689B0706D52A4A136B2D490B40E16857
:1005A0000B43136323689B0606D5254A136B102162
:1005B0008B4321690B43136323689B0306D5204AB1
:1005C000136B80218B43A1690B43136323685B0585
:1005D00033D51B4A136B40218B4361690B43136373
:1005E000002002B070BD0025A1E7164A11688023E3
:1005F0005B000B43136001F053FF0600114B1B68B7
:10060000DB0598D401F04CFF801B6428F6D9032049
:10061000E7E701F045FF0600094B1B6A9B07A4D4DE
:1006200001F03EFF801B0B4B9842F5D90320D8E721
:10063000D36909490B40D361A0E70020D1E7C04648
:100640000010024000700040FFFCFFFFFFFFFEFFB4
:10065000FFFFFCFF88130000FFFFFFEF0B4B1B6841
:100660001B68002B0AD10133002B09D1074B1B68F3
:10067000DB68DB685A68064B1A6070470023F3E7B3
:1006800001225242024B1A60F7E7C0468C0000205C
:100690006401002010B50400006B00F0D1FD2000C3
:1006A00000F0CEFD10BD0000F0B583B000900193C6
:1006B000089C0A9E1D4B9C4662449200336B9C46EC
:1006C000624407239A43170000230F2B09D8C81848
:1006D0000578F218343215700278002A01D00133FF
:1006E000F3E700224323F254062C00D90624F462D7
:1006F00074640025B564301D01F07CFA30001830B8
:1007000001F078FA366107231C1BB4617662F56448
:100710004933F554019A0099380001F083F93060AB
:10072000099B002B00D01E6003B0F0BDFFFFFF3F10
:1007300070B5002407E0A3001B199A000E4880182A
:1007400001F04DFA0134062CF5D90C4D280001F0CA
:1007500046FA0B4C200001F042FA0A4801F03FFA39
:10076000094801F03CFA094801F039FA084B1D60CC
:10077000084B1C6070BDC04694000020380100206A
:100780004C0100206C010020980100208401002011
:100790008C0000209000002010B5040001F060F9EA
:1007A0001F4A1368013313601E4B1B68002B2BD0AC
:1007B0001D4B1B68002B07D11A4B1B68DB6AE26AD2
:1007C000934201D8174B1C60184A13680133136019
:1007D000E26A174B1B689A4201D9154B1A60211D1A
:1007E00093009B189A001348801801F006FA01F054
:1007F00043F90D4B1B68002B05D00A4B1B68DA6AC6
:10080000E36A9A4208D310BD064B1C601368012BA3
:10081000DAD1FFF78DFFD7E701F016F9F3E7C0460D
:1008200020010020880000208001002030010020ED
:10083000340100209400002070B504000D00174B17
:100840001E68174B1868043001F0FBF9631C13D0C5
:100850003419134B1B685C60A64216D8114B1868FC
:100860000F4B1968043101F0D4F90F4B1B689C42FF
:1008700012D20D4B1C600FE0002DE9D0084B196817
:1008800004310A4801F0B9F906E0094B1868044B35
:100890001968043101F0BDF970BDC046AC010020FB
:1008A000880000208C0000206401002084010020CA
:1008B00090000020F0B587B00490059114001F004F
:1008C000900000F051FC061E1ED0542000F04CFC9D
:1008D000051E15D00663002D18D000230393029542
:1008E0000D9B01930C9B00933B00220005990498FB
:1008F000FFF7DAFE2800FFF74FFF012007B0F0BD39
:10090000300000F09DFCE6E70025E4E701204042CE
:10091000F4E7000000B583B00F4B01930023009370
:1009200080220E490E48FFF7C5FF012803D0431C63
:100930000FD003B000BD72B601225242094B1A60BB
:100940000232094B1A600022084B1A6001F0F8F8D5
:10095000EFE772B6FEE7C04660010020A42F000852
:10096000110C00086401002080010020AC0100206F
:10097000024A1368013313607047C0462C010020FF
:10098000F8B53B4B1B68002B66D13A4B1D6801350F
:100990001D60002D12D1384B1B681B68002B01D045
:1009A00072B6FEE7344A1168344B1868106019605B
:1009B000334A136801331360FFF750FE314B1B6855
:1009C0009D423DD20024304B1B68DA6A93009B188D
:1009D0009A002E4BD358012B43D9012441E0012426
:1009E000254B1B681B68002B2CD00023002B2BD120
:1009F000214B1B68DB68DE6873689D4229D3371D75
:100A0000380001F01EF9B36A002B03D03000183013
:100A100001F017F9F26A1E4B1B689A4201D91C4B70
:100A20001A6093009B189A0018488018390001F04A
:100A3000E4F8F26A144B1B68DB6A9A42CFD2CFE724
:100A40000024CDE70133D1E7012252420D4B1A6059
:100A5000B9E70C4A1360B6E70E4A13680133136016
:100A600000240D4B1B68002B00D001242000F8BD92
:100A70002C010020AC0100208C0000209000002000
:100A800068010020640100208800002094000020FC
:100A90003401002028010020B001002070B5324B45
:100AA0001B68002B01D172B6FEE700F0D9FF2E4B78
:100AB0001A68013A1A601B68002B50D12B4B1B6837
:100AC000002B04D1002400F0D7FF200070BD0024CB
:100AD000274B1B68002B23D0254BDB68DC682000EC
:100AE000183001F0AEF8251D280001F0AAF8E26ADE
:100AF000204B1B689A4201D91E4B1A6093009B1829
:100B00009A001D488018290001F077F81B4B1B68DC
:100B1000DB6AE26A9A42DBD30122194B1A60D7E7FB
:100B2000002C01D0FFF79AFD164B1C68002C0AD14F
:100B3000134B1B68002B14D000F086FF0124C2E782
:100B4000013C002C07D0FFF71BFF0028F8D0012242
:100B50000B4B1A60F4E700220A4B1A60E8E7002406
:100B6000B1E70024AFE7C0462C010020200100209F
:100B70006C01002034010020940000208800002037
:100B8000B00100202801002010B5041E0ED00A4B31
:100B90001B68002B01D072B6FEE7FFF7E9FE0021CB
:100BA0002000FFF749FEFFF779FF00E00020002852
:100BB00001D100F049FF10BD2C01002010B5114BF0
:100BC0001B68002B1DD0FFF7D3FE0F4B1C68FFF7EF
:100BD00065FF002CF3D000F043FF0B4BDB68DC68B3
:100BE000201D01F02EF8094A1368013B1360054AE5
:100BF0001368013B136000F03FFF2000FFF74AFD40
:100C0000DDE710BD24010020980100202001002014
:100C100010B5FFF7D3FF034B1B68012BF9D900F088
:100C200013FFF6E79400002010B51D4B1B68002B46
:100C30000FD100221B4B1A601B4B1B689A00D21865
:100C400091001A4A8A58002A09D1002B05D0013B8D
:100C5000F4E70122134B1A6010BD72B6FEE7134889
:100C60009A0041184C6864684C60D21891000831B1
:100C7000401884420BD09A00D21891000B4A5218A7
:100C80005268D1680A4A1160074A1360E4E7606855
:100C90009A00D2189100054A52185060EBE7C046FE
:100CA0002C010020B001002034010020940000201D
:100CB00088000020064B1B68002B05D0054B1B68E5
:100CC000002B03D1022070470120FCE70020FAE747
:100CD000800100202C01002070B5002811DB830862
:100CE000144DC0339B005C5903221040C000FC32FD
:100CF00016008640B44389010A40824022435A517B
:100D000070BDC0B20F230340083B9B0806339B0015
:100D1000094A944663445D6803221040C000FF24E2
:100D200022008240954389010C4084402C435C6042
:100D3000E6E7C04600E100E000ED00E001380A4BC4
:100D400098420FD8094A50600948036A1B021B0ADF
:100D5000C02109060B43036200239360073313602D
:100D6000002070470120FCE7FFFFFF0010E000E0DB
:100D700000ED00E0042805D0054A136804218B43E8
:100D800013607047024A136804210B431360F8E7AD
:100D900010E000E070B504000268D368A0218B4326
:100DA000D36001F07DFB05002368DB689B0608D457
:100DB00001F076FB401BFA239B009842F4D90320F4
:100DC00000E0002070BD70B504000368DA685206C8
:100DD00001D5002070BD01225242DA6001F060FBB3
:100DE00005002368DB685B0608D401F059FB401B53
:100DF000FA239B009842F4D90320EBE70020E9E7AF
:100E000070B5041E57D0437F002B3DD0022363777B
:100E10002368CA225A622368773A5A622000FFF791
:100E2000D2FF051E34D12268936824490B40936099
:100E300021688A6863682069034360690343134338
:100E40008B602368E2681A6121680B69A26812044A
:100E500013430B612268D36880218B43D3602368DE
:100E60009B689B061BD52268136C15490B401364C5
:100E70002268136CA1690B4313642368FF225A6232
:100E800001236377280070BD037701F0A9FABDE75D
:100E90002368FF225A62042363770125F2E72000CA
:100EA000FFF778FF0028DED02368FF225A62042370
:100EB00063770125E6E70125E4E7C046BFFF8FFF22
:100EC000FFFFFBFF002302E001330A38C0B209280C
:100ED000FAD81B01DBB2184370470000F8B50400D4
:100EE0000E00037F012B6FD001230377013343777B
:100EF000002A41D103689B685B0601D40023CB70B4
:100F00003078FFF7DFFF05047078FFF7DBFF0002A2
:100F10000543B078FFF7D6FF0543F078000405439A
:100F20002368CA225A622368773A5A622000FFF780
:100F30004AFF071E31D12368254805401D602268FD
:100F4000936824490B40936021688B68F26830698C
:100F5000024313438B602268D36880218B43D360A4
:100F600023689B689B0621D52368FF225A620123D0
:100F700063770023237728E003689B685B0601D42E
:100F80000023CB7035782D04707800020543B078CB
:100F90000543F07800040543C2E72368FF225A6244
:100FA000042363770023237701270EE02000FFF757
:100FB000F1FE0028D8D02368FF225A620423637709
:100FC00000232377012700E002273800F8BDC04640
:100FD0007F7F7F00FFFFFBFF70B504000E00037FE3
:100FE000012B60D00123037701334377002A06D118
:100FF0004B78D90603D510218B430A337370002A2E
:101000002FD1F078FFF75EFF05047078FFF75AFFE5
:1010100000020543B078FFF755FF054330784003E1
:1010200005432368CA225A622368773A5A6220002D
:10103000FFF7C9FE061E1FD123681C4805405D60EE
:101040002268D36880218B43D36023689B689B060A
:101050001BD52368FF225A6201236377002323777D
:1010600022E07378B078F5782D041B021D43054308
:10107000307840030543D4E72368FF225A620423F3
:1010800063770023237701260EE02000FFF782FE1E
:101090000028DED02368FF225A62042363770023EE
:1010A0002377012600E00226300070BD3FFFFF00DD
:1010B000124A53071FD0D11D07239943C0231B0198
:1010C0005B1A9B180A000E48026000214160D31889
:1010D000083B072083430B48036059601960991A45
:1010E00051601360084B1960084B1960802212068A
:1010F000074B1A607047C0231B01E4E7B8010020CA
:10110000C40D0020B4010020C00D0020BC0D002043
:10111000B80D002010B5124B1A68824219D35968D5
:101120005C18A04203D14068091859601800416852
:101130004418A24211D10B4C2468A2420BD0526831
:10114000891841601A6812680260984200D01860DD
:1011500010BD1300E0E70460F7E70260F5E7C04662
:10116000C40D0020B401002070B50400FFF700FC9E
:101170002E4B1B68002B0FD02D4B1B6823424BD1ED
:10118000002C0CD00834630709D007239C43083493
:10119000234204D072B6FEE7FFF78AFFECE7002C8B
:1011A0003CD0244B1B689C423AD8234B1D6801E07D
:1011B0002B0015006A68944202D92A68002AF7D1E8
:1011C0001A4A126895422DD01E6808362A681A609D
:1011D0006B681B1B102B08D92819420701D072B667
:1011E000FEE743606C60FFF795FF6A6811490B6882
:1011F0009B1A0B60114909688B4201D20F490B60A1
:101200000B4B1B6813436B6000232B60FFF746FCFE
:10121000730709D072B6FEE70026F7E70026F5E768
:101220000026F3E70026F1E7300070BDB40100208E
:10123000B80D0020BC0D0020C40D0020C00D002002
:1012400070B5002820D00500083D6B680F4A126871
:101250001A4201D172B6FEE7010008390968002977
:1012600001D072B6FEE70838040093434360FFF7ED
:101270007FFB6368064A11688C466344136028004C
:10128000FFF748FFFFF70AFC70BDC046B80D00200D
:10129000BC0D002070B582B004000368DB073BD5AD
:1012A000C34B5A680C231340042B2DD0C04B5A68F3
:1012B0000C231340082B1ED06368012B50D0002B49
:1012C00055D1BB4B1A68BB490A401A601A68BA4923
:1012D0000A401A606368002B61D001F0E1F8050054
:1012E000B34B1B689B0317D401F0DAF8401B64284A
:1012F000F6D903203BE2AE4B5B68C022520213409A
:10130000802252029342D7D1A94B1B689B0303D57D
:101310006368002B00D127E223689B0767D5A44BA5
:101320005B680C221A4251D0A14B5A680C2313401F
:10133000082B42D0E368002B7BD09D4A1368012123
:101340000B43136001F0ACF80500994B1B689B0739
:1013500066D401F0A5F8401B0228F6D9032006E266
:10136000934A116880235B020B431360B2E7052B9D
:1013700009D08F4B1A688F490A401A601A688E4943
:101380000A401A60A6E78A4B19688022D2020A43F3
:101390001A601968802252020A431A609AE701F023
:1013A0007FF80500824B1B689B03B5D501F078F8E8
:1013B000401B6428F6D90320D9E17D4B5B68C0222D
:1013C00052021340802212029342B3D1784B1B6821
:1013D0009B0704D5E368012B01D00120C7E17449C4
:1013E0000B68F82293432269D20013430B602368F1
:1013F0001B0744D5E369002B2ED06D4A536A0121A7
:101400000B43536201F04CF80500694B5B6A9B0784
:1014100035D401F045F8401B0228F6D90320A6E197
:1014200063490B68F82293432269D20013430B608F
:10143000DDE75F4A136801218B43136001F030F848
:1014400005005B4B1B689B07D1D501F029F8401BB9
:101450000228F6D903208AE1554A536A01218B43B9
:10146000536201F01DF80500514B5B6A9B0706D5DE
:1014700001F016F8401B0228F6D9032077E1236813
:101480005B0775D54A4BDB69DB000BD4484AD16951
:10149000802040050143D161D36903400193019B42
:1014A000012500E00025454B1B68DB051FD5A3681F
:1014B000012B30D0002B34D13D4B1A6A01218A43D5
:1014C0001A621A6A03318A431A62A368002B3ED05B
:1014D00000F0E6FF0600364B1B6A9B0746D400F07F
:1014E000DFFF801B364B9842F5D903203FE1334A9A
:1014F000116880235B000B43136000F0D1FF0600EE
:101500002E4B1B68DB05D2D400F0CAFF801B642879
:10151000F6D903202BE1264A136A01210B431362FB
:10152000D3E7052B09D0224B1A6A01218A431A629C
:101530001A6A03318A431A62C7E71D4B1A6A0421EB
:101540000A431A621A6A03390A431A62BDE700F0B5
:10155000A7FF0600164B1B6A9B0707D500F0A0FFEC
:10156000801B174B9842F5D9032000E1012D29D0AB
:101570002368DB0658D56369012B29D0053347D092
:101580000B4B5A6B04210A435A635A6B03398A4343
:101590005A6300F085FF0500054B5B6B9B0743D545
:1015A00000F07EFF401B0228F6D90320DFE0C04692
:1015B00000100240FFFFFEFFFFFFFBFF0070004036
:1015C000881300006C4AD3696C490B40D361CFE7A4
:1015D000694B5A6B04210A435A635A6B03390A4315
:1015E0005A6300F05DFF0500634B5B6B9B0706D4FD
:1015F00000F056FF401B0228F6D90320B7E05E49F1
:101600004B6BF8229343A269D20013434B630BE068
:10161000594A536B04218B435363536BF4318B430F
:10162000A169C9000B43536323689B0645D5524B00
:101630005A680C2313400C2B23D04F4B5A680C23B1
:101640001340082B16D0236A002B23D04A4A516B33
:1016500080235B020B43536300F022FF0500464BDF
:101660005B6BDB0329D400F01BFF401B0228F6D97B
:1016700003207CE0404B5B68C0225202134093423F
:10168000E1D13D4B5B6BDB0317D5236A012B14D0F3
:1016900001206CE0384A536B39490B40536300F02A
:1016A000FFFE0500344B5B6BDB0306D500F0F8FE54
:1016B000401B0228F6D9032059E0636A002B55D05D
:1016C0002D4A51680C220A40082A52D0022B12D00F
:1016D000294A13682B490B40136000F0E1FE040017
:1016E000254B1B689B013DD500F0DAFE001B02284C
:1016F000F6D903203BE0204A136822490B401360CF
:1017000000F0CEFE05001C4B1B689B0106D500F0C7
:10171000C7FE401B0228F6D9032028E0164BDA6AE0
:101720000F218A43216B0A43DA625A6816490A403C
:10173000E16AA06A01430A435A6019688022520490
:101740000A431A6000F0ACFE04000B4B1B689B01BF
:1017500006D400F0A5FE001B0228F6D9032006E0FF
:10176000002004E0002002E0012000E0002002B0A0
:1017700070BD0120FBE7C04600100240FFFFFFEFF5
:10178000FFFFFEFFFFFFFFFEFF7FC2FF30B589B006
:1017900004AA1F4B180032C832C2110002680A6046
:1017A0006A46103313CB13C21B681360194B5A6877
:1017B0000C231340082B04D00C2B26D0164809B05C
:1017C00030BD910C0F23194004A8445C1149C96A2B
:1017D0000B406946C95CC0235B021A4080235B0250
:1017E0009A4208D0C0235B029A4209D00A48FEF709
:1017F00097FC6043E3E70848FEF792FC6043DEE7AE
:101800000648FEF78DFC6043D9E70448D7E7C04699
:10181000442F00080010024000127A00006CDC0225
:1018200070B505000C00594B1A68012313408B4218
:101830000BD256490B680122934323430B600B687C
:101840001A40944201D001209DE02B689B0706D5E9
:101850004F4A5368F0218B43A9680B4353602B68B0
:10186000DB0764D56B68012B25D0022B29D0032B15
:101870002DD0474A1268920700D485E044494A684F
:101880000320824313434B6000F00AFE06006B689E
:10189000012B22D0022B2ED0032B3AD03C4B5B687D
:1018A0000C221A4243D000F0FBFD801B394B9842BA
:1018B000F4D9032067E0364A12689203DED401208F
:1018C00061E0334A12689201D8D401205BE0304ACB
:1018D000526BD203D2D4012055E02D4B5A680C2311
:1018E0001340042B23D000F0DBFD801B294B9842D2
:1018F000F3D9032047E0264B5A680C231340082BEA
:1019000015D000F0CDFD801B224B9842F3D9032067
:1019100039E01F4B5A680C2313400C2B07D000F002
:10192000BFFD801B1B4B9842F3D903202BE0174BC4
:101930001A68012313409C420BD214490B68012200
:10194000934323430B600B681A40944201D001205B
:1019500019E02B685B0706D50D4A53680E490B400A
:10196000E9680B435360FFF711FF094B5A681209EE
:101970000F231340094AD35CD840094B1860032059
:1019800000F064FD002070BD0120FCE70020024053
:101990000010024088130000FFF8FFFFAC2F000882
:1019A00004000020014B18687047C0460400002066
:1019B00010B5FFF7F7FF044B5A68120A07231340CC
:1019C000024AD35CD84010BD00100240BC2F000872
:1019D000034B1B68013301D072B6FEE772B6FEE717
:1019E00000000020000000000000000000000000D7
:1019F0000B4A13681868203080F30988022080F3AE
:101A00001488BFF36F8F3FBCAE4608BC04BC62B6FF
:101A10001847C046C046C046C046C046C046C0463D
:101A20008800002010B5031F802464041C60043B60
:101A30001960043B02491960143B1A60403810BD1C
:101A4000D11900087047000080225205034B1A602C
:101A5000BFF34F8FBFF36F8F7047C04604ED00E0B8
:101A600072B6044A136801331360BFF34F8FBFF39C
:101A70006F8F704700000020064B1B68002B01D1C0
:101A800072B6FEE7013B034A1360002B00D162B639
:101A90007047C04600000020EFF3108072B6704718
:101AA000002080F310887047000000000000000054
:101AB000EFF309800E4B1A6820381060F0C04446DE
:101AC0004D4656465F46F0C008B572B6FFF7ACF813
:101AD00062B60CBC116808681030F0C8A046A94670
:101AE000B246BB4680F309882038F0C81847C04684
:101AF0008800002010B5FFF7CFFF0400FEF740FF7D
:101B0000002803D080225205024B1A602000FFF704
:101B1000C8FF10BD04ED00E010B5064B1868FA21AF
:101B20008900FEF7FDFA0138034B18600722034BCA
:101B30001A6010BD0400002014E000E010E000E096
:101B400010B50A4B1968FF2212040A431A6019687B
:101B5000FF2212060A431A60FFF7DEFF0022044B41
:101B60001A60FFF745FFFFF733FFC04620ED00E0A6
:101B700000000020842801D0033070470020FCE7DB
:101B800010B5FEF7C7FE002010BDF0B585B00D0002
:101B90004668076804690823C05EFFF7EBFFA2B23E
:101BA00003AB019300902B0039003000FEF782FE5A
:101BB000012802D1039805B0F0BD0020FBE710B565
:101BC000002800D10130FEF7DFFF002010BD10B566
:101BD000FFF770F8012801D0FFF78CFF10BD03005C
:101BE00008334360012252428260C36003610023D4
:101BF0000360704700230361704743684B609A6835
:101C00008A609A68516099600861036801330360D3
:101C1000704730B50C68631C02D00200083202E045
:101C2000026904E01A0053681D68AC42FAD2536896
:101C30004B6099608A6051600861036801330360FA
:101C400030BD036942688168916082684168516073
:101C50005A68904205D0002202611A68501E18602E
:101C6000704782685A60F6E7114B1A6801210A43EF
:101C70001A605A680F4802405A601A680E480240BB
:101C80001A601A680D4802401A605A680C480240EF
:101C90005A60DA6A0F208243DA621A6B09480240FE
:101CA0001A635A6B8A435A6300229A607047C0468F
:101CB000001002400CB8FF08FFFFF6FEFFFFFBFF1D
:101CC000FFFFC0FF2CFEFCFF70B5040083680269B3
:101CD000134342691343C269134301680A68724897
:101CE000024013430B602268536870490B40E1685F
:101CF0000B435360A369226A134321688A686C48C6
:101D0000024013438B6025686A4B9D4226D06A4B84
:101D10009D4237D0694B9D4256D0694B9D424FD072
:101D2000102380221202E16991424FD0022B00D190
:101D30009FE000D88FE0042B00D1A6E0082B00D054
:101D4000AFE06168480880231B029C466044FEF7B0
:101D5000E7F90004000CE860002061E0594B1A6BC1
:101D600003231340012B09D0002B05D0022B07D0F1
:101D7000032B27D01023D4E70023D2E70423D0E796
:101D80000823CEE74F4B1B6BC022920213408022E8
:101D9000520293420ED009D98022920293420BD074
:101DA000C0229202934209D10223BAE7002B05D147
:101DB0000023B6E70423B4E70823B2E71023B0E713
:101DC0000023AEE70223ACE70023AAE7022B28D0CA
:101DD0000FD9042B30D0082B3AD1636858088023E0
:101DE0005B029C4660446168FEF79AF983B200206A
:101DF0000CE0002B2CD1FFF7DBFD400063685B0893
:101E0000C0186168FEF78CF983B200200F22190018
:101E100091430A005B1007210B4013432268D360F3
:101E200070BD63685808284B9C4660446168FEF7A3
:101E300077F983B20020E9E7FFF7A8FC4000636868
:101E40005B08C0186168FEF76BF983B20020DDE71C
:101E500001200023DAE7002B23D1FFF7A9FD6168F9
:101E60004B08C018FEF75CF90004000CE860002085
:101E7000D6E761684808154B9C466044FEF750F968
:101E80000004000CE8600020CAE7FFF77FFC6168EF
:101E90004B08C018FEF744F90004000CE86000206D
:101EA000BEE70120BCE7C046F369FFEFFFCFFFFFAD
:101EB000FFF4FFFF003801400044004000480040AC
:101EC000004C0040001002400024F40000127A0090
:101ED000436ADB0706D5026853682C490B40816AC8
:101EE0000B435360436A9B0706D502685368284931
:101EF0000B40C16A0B435360436A5B0706D5026817
:101F0000536824490B40016B0B435360436A1B0722
:101F100006D50268536820490B40416B0B43536060
:101F2000436ADB0606D5026893681C490B40816B47
:101F30000B439360436A9B0606D502689368184971
:101F40000B40C16B0B439360436A5B060BD5026881
:101F5000536814490B40016C0B43536080235B03AF
:101F6000026C9A420AD0436A1B0606D5026853687F
:101F70000D490B40816C0B435360704702685368F6
:101F80000A490B40416C0B435360ECE7FFFFFDFF38
:101F9000FFFFFEFFFFFFFBFFFF7FFFFFFFEFFFFFE6
:101FA000FFDFFFFFFFFFEFFFFFFFF7FFFFFF9FFFD9
:101FB000F0B5C64600B505000F0016009846069C11
:101FC0002B68DB693A009A4313005A425341B342EB
:101FD0001ED1631CF4D0002C05D000F061FA4346FA
:101FE000C01A8442ECD22A6813680B490B40136074
:101FF0002A689368A331FF318B43936020236922C1
:10200000AB540132AB5400224833EA54032000E0C1
:10201000002004BC9046F0BD5FFEFFFFF0B585B028
:1020200004000F0016001D006923C35C202B02D0A2
:10203000022005B0F0BD00295BD0002A5BD08023D0
:102040005B0182689A4205D06823E35C012B08D1CA
:102050000220EEE70369002BF6D1CB07F4D501206F
:10206000E7E701226823E2540023E3662032693364
:10207000E25400F015FA03905023E6520233E65280
:1020800003E03B782268138501375223E35A9BB261
:10209000002B1CD05222A35A013B9BB2A3520095A5
:1020A000039B002280212000FFF782FF002824D11B
:1020B00080235B01A2689A42E3D12369002BE0D11F
:1020C0003B88DB05DB0D226813850237DDE70095D1
:1020D000039B002240212000FFF76AFF002801D067
:1020E0000320A6E720226923E2540022013BE254A8
:1020F0009FE701209DE701209BE7032099E700006F
:1021000030B583B004000023C36600F0C9F90500B0
:102110002368194A93420DD0184A93420AD02023CB
:102120006922A3540132A35400224833E254002010
:1021300003B030BD1B681B0710D423681B685B0706
:10214000EDD50F4B00932B0000228021C903200006
:10215000FFF72EFF0028E2D00320E9E7084B0093A9
:102160002B000022802189032000FFF721FF002897
:10217000E3D00320DCE7C0460038014000440040C3
:10218000FFFFFF0110B5041E30D06923C35C002B94
:1021900022D024226923E2542268136801218B4350
:1021A00013602000FFF790FD012814D0636A002B14
:1021B00018D1226853680E490B4053602268936817
:1021C0002A218B4393602268136829390B431360DB
:1021D0002000FFF795FF10BD00226833C25400F0C5
:1021E0000FF9D6E72000FFF773FEE2E70120F2E7E0
:1021F000FFB7FFFFF0B5C64600B582B0002381E00F
:10220000DF080837BF003E5807251D40AD000F24EA
:10221000AC40A6430C69AC40250035433D5081E0FD
:10222000856864462540CE68BE4035438560456874
:102230002C004546AC434D682E09012535409D4094
:102240002C434460C46865462C408D68BD402C43D7
:10225000C4604C68E40054D5464DAE690124264361
:10226000AE61AD692C400194019C9C08A51CAD0099
:10227000414EAE5903271F40BD000F27AF40BE435C
:102280009027FF05B84268D03C4FB84267D03C4F1A
:10229000B84266D03B4FB84265D03B4FB8425AD0A7
:1022A0000527AF403D0035430234A400324EA5510E
:1022B000364C2568D44326002E404F68FF0301D5D5
:1022C00015432E00314D2E606D682E0026404F685C
:1022D000BF0301D515432E002C4D6E60AD682E0056
:1022E00026404F68FF0201D515432E00274DAE60F2
:1022F000ED682C404E68B60201D52A431400234AEB
:10230000D46001330A681400DC402ED001249C40C4
:10231000A0462240F5D04D68022D00D170E7122D65
:1023200000D16DE706685F0003252C00BC40E44344
:10233000A44626404C682540BD40354305604D68A5
:102340006E1E012E00D86BE7112D00D168E7122D0B
:1023500000D077E764E70427A3E70027A1E7012778
:102360009FE702279DE703279BE702B004BC904646
:10237000F0BDC046001002400000014000040048CB
:1023800000080048000C004800100048000401400C
:10239000002A01D1816270478161FCE700B583B0FA
:1023A0000E4A916901231943916192691340019387
:1023B000019B0022002105204042FEF78DFC0022F7
:1023C000032102204042FEF787FC00220321012066
:1023D0004042FEF781FC03B000BDC0460010024041
:1023E0000268054B9A4200D07047044A116A802364
:1023F0001B020B431362F7E7002800400010024065
:1024000000B587B002680F4B9A4201D007B000BDFB
:102410000D4AD169802080020143D161D369034014
:102420000093009B0C2301930A3B02930023039328
:1024300004930133059301A99020C005FFF7DAFE4C
:10244000E4E7C046004400400010024010B504001C
:10245000FFF7A8FAFA218900FDF762FEFEF76EFC8D
:102460000022210001204042FEF736FC002010BD72
:1024700010B5064A136810210B4313600320FFF7C1
:10248000E5FFFFF78BFF002010BDC0460020024093
:10249000024A1368013313607047C0466C0E002077
:1024A000014B18687047C0466C0E00200D488546E9
:1024B000002103E00C4B5B58435004310B480C4B9C
:1024C00042189A42F6D30B4A02E00023136004320A
:1024D000094B9A42F9D3FFF7C7FB00F011F8FDF75B
:1024E000DDFFFEE700400020303000080000002043
:1024F0006C0000206C000020740E0020FEE700003D
:1025000070B500260C4D0D4C641BA410A64209D1D9
:10251000002600F001FD0A4D0A4C641BA410A642DF
:1025200005D170BDB300EB5898470136EEE7B30014
:10253000EB5898470136F2E72830000828300008A9
:10254000283000082C30000803008218934200D184
:10255000704719700133F9E770B505000E000028C7
:1025600004D08369002B01D100F024FAAB69AC6878
:10257000002B02D1280000F01DFA244B9C420FD101
:102580006C68A3891B0702D52369002B20D1210089
:10259000280000F0A1F800281AD00120404270BDA8
:1025A0001B4B9C4201D1AC68EBE71A4B9C42E8D133
:1025B000EC68E6E7013B0136A360002B04DAA26970
:1025C000934216DB0A2914D023685A1C2260197022
:1025D0003178A3680029EDD1013BA360002B0FDA0D
:1025E00022000A31280000F021F8431CD5D00A202F
:1025F000D5E72200280000F019F8431CE8D1CCE709
:102600000A2023685A1C22601870C8E7E82F0008C7
:1026100008300008C82F000810B5034B01001868E7
:10262000FFF79AFF10BDC04608000020F8B505006E
:102630000E001400002804D08369002B01D100F0A3
:10264000B9F9224B9C422DD16C68A369A360A38980
:102650001B0731D52369002B2ED023682269F7B2DE
:10266000981A6369F6B2984205DB2100280000F051
:1026700033F9002826D1A3680130013BA360236809
:102680005A1C22601F706369984204D0A389DB073B
:102690001AD50A2E18D12100280000F01DF90028B3
:1026A00012D00FE00A4B9C4201D1AC68CDE7094B38
:1026B0009C42CAD1EC68C8E72100280000F00CF861
:1026C0000028CAD0012676423000F8BDE82F000865
:1026D00008300008C82F0008364B70B51D6806008A
:1026E0000C00002D05D0AB69002B02D1280000F0B2
:1026F00061F9314B9C420FD16C680C23E25E93B2BE
:1027000019072DD4D90611D409230120336037339A
:102710001343A381404270BD284B9C4201D1AC6859
:10272000EBE7274B9C42E8D1EC68E6E75B0713D563
:10273000616B002908D023004433994202D0300055
:1027400000F03AFA002363632422A3899343A38110
:1027500000236360236923600823A2891343A381B4
:102760002369002B0BD1A0218022A389890092002C
:102770000B40934203D02100300000F0D9F901232F
:10278000A289134011D00023A36063695B42A36157
:10279000002023698342BED10C23E25E1306BAD522
:1027A00040231343A3810138B5E7920700D463693E
:1027B000A360EDE708000020E82F000808300008BB
:1027C000C82F0008F7B58A8905000C00130760D4EC
:1027D0004B68002B04DC0B6C002B01DC0020FEBDE1
:1027E000E76A002FFAD000232E682B6080235B015C
:1027F0001A4034D0606DA3895B0706D56368C01AA0
:10280000636B002B01D0236CC01A0200216A0023E5
:102810002800E76AB847A189431C06D12B681D2B05
:1028200031D82C4ADA40D3072DD5002363602369C1
:102830002360CB0405D5431C02D12B68002B00D1AB
:102840006065616B2E600029C8D023004433994233
:1028500002D0280000F0B0F900206063BFE7012338
:10286000216A2800B847431CC5D12B68002BC2D071
:102870001D2B01D0162B01D12E60AFE74023A2897A
:102880001343A381ABE740230B430120A3814042C4
:10289000A5E70F69002FA1D00B680F60DB1B019328
:1028A0000023920700D14B69A360019B002B00DC41
:1028B00094E7019B3A00216A2800A66AB0470028E5
:1028C00003DC4023A2891343DFE7019B3F181B1A57
:1028D0000193EAE7010040200B6970B505000C0088
:1028E000002B01D1002070BD002804D08369002B8B
:1028F00001D100F05FF80B4B9C4209D16C680C22AF
:10290000A35E002BEED021002800FFF75BFFEAE773
:10291000054B9C4201D1AC68F1E7044B9C42EED1DF
:10292000EC68ECE7E82F000808300008C82F000822
:1029300010B5024900F0B2F810BDC046D928000811
:10294000002310B504000360436083608181436607
:10295000C281036143618361190008225C30FFF783
:10296000F3FD054B24626362044BA362044BE362F4
:10297000044B236310BDC0462D2D0008552D0008C3
:102980008D2D0008B92D000870B568254A1E5543E5
:102990000E002900743100F059F9041E08D00021FE
:1029A0002A00016046600C30A0606832FFF7CCFD61
:1029B000200070BD836913B50400002B28D1836407
:1029C000C3640365134B144A1B68826201939842E7
:1029D00001D101238361200000F020F86060200015
:1029E00000F01CF8A060200000F018F80022E06061
:1029F00004216068FFF7A4FF01220921A068FFF706
:102A00009FFF02221221E068FFF79AFF0123A361D2
:102A100013BDC046C42F000831290008F8B51E4B6D
:102A200007001E68B369002B02D13000FFF7C2FF18
:102A30004836B4687368013B04D53368002B07D06F
:102A40003668F6E70C22A55E002D0DD06834F2E75B
:102A500004213800FFF798FF30600028F0D10C23E4
:102A600004003B602000F8BD012320005B42E381AD
:102A70000233A38165662560A56065602561656197
:102A8000A561082229005C30FFF75EFD6563A56340
:102A9000A564E564E6E7C046C42F0008F7B5040066
:102AA0000700002601914834002C01D13000FEBD02
:102AB0006368A5680093009B013B009301D52468DF
:102AC000F2E7AB89012B08D90E22AB5E013304D0AB
:102AD00029003800019B984706436835EBE7000062
:102AE00070B50E001D000E23C95E90B014000029C1
:102AF00007DA00232B60B3891B0611D48023DB0087
:102B00000FE001AA00F084F90028F2DBF022029B1A
:102B100012021340054A9B185A4253412B60EDE7BD
:102B200040230020236010B070BDC04600E0FFFFCE
:102B3000F7B502268B8905000C00334206D023002E
:102B400047332360236101236361F7BD01AB6A460C
:102B5000FFF7C6FF00990700280000F077F800286B
:102B600008D10C22A35E9A05EFD4032293431E439F
:102B7000A681E4E70F4BAB628023A2892060134358
:102B8000A381009B20616361019B002B0DD00E236C
:102B9000E15E280000F04EF9002806D00322A38948
:102BA00093431A0001231343A381A0893843A081D2
:102BB000CBE7C0463129000870B50500002910D0C8
:102BC0000C1F2368002B00DAE418280000F058F9E5
:102BD0001D4A1368002B05D163601460280000F0C3
:102BE00050F970BDA34209D9216860188342F3D11E
:102BF00018685B6841182160EEE713005A68002AE4
:102C000001D0A242F9D919685818A0420BD1206806
:102C10000918581819608242E0D1106852684118AA
:102C200019605A60DAE7A04202D90C232B60D5E77D
:102C300021686018824203D11068526841182160EF
:102C400062605C60CAE7C046CC0D0020032370B50B
:102C5000CD1C9D43083506000C2D1ED20C25A94223
:102C60001DD8300000F00CF9254A14682100002915
:102C700019D1244C2368002B03D1300000F044F814
:102C800020602900300000F03FF8431C2CD10C23B9
:102C90003000336000F0F5F803E0002DDFDA0C239C
:102CA0003360002070BD0B685B1B1AD40B2B03D95B
:102CB0000B60CC18256003E08C420ED16368136072
:102CC000300000F0DEF8200007220B30231D904377
:102CD000C31AE7D05A42E250E4E74B6863600C0045
:102CE000EEE70C004968C2E70323C41C9C43A042E2
:102CF000E0D0211A300000F007F8431CDAD1C6E713
:102D0000CC0D0020D00D0020002370B5064C05002E
:102D10000800236000F0F2F8431C03D12368002B65
:102D200000D02B6070BDC046700E002070B50C0046
:102D30000E25495F00F0A6F8002803DB636D1B1821
:102D4000636570BDA389024A1340A381F9E7C046B9
:102D5000FFEFFFFFF8B51F008B8905000C00160080
:102D6000DB0505D50E23C95E0022022300F074F8AE
:102D7000A389054A28001340A38132000E23E15E97
:102D80003B0000F01FF8F8BDFFEFFFFF70B50C002F
:102D90000E25495F00F060F8A389421C03D1054A63
:102DA0001340A38170BD802252011343A38160654B
:102DB000F8E7C046FFEFFFFF10B50E23C95E00F035
:102DC00015F810BD70B50500080011000022064C72
:102DD00022601A00FDF766FA431C03D12368002B1A
:102DE00000D02B6070BDC046700E0020002370B56F
:102DF000064C05000800236000F058F8431C03D17E
:102E00002368002B00D02B6070BDC046700E0020E0
:102E1000002370B5064C050008001100236000F087
:102E20004DF8431C03D12368002B00D02B6070BDEC
:102E3000700E0020002370B5064C050008002360CA
:102E400000F044F8431C03D12368002B00D02B6012
:102E500070BDC046700E002070B50500080011005E
:102E60000022064C22601A0000F038F8431C03D1FF
:102E70002368002B00D02B6070BDC046700E002070
:102E80007047704770B50500080011000022064C1D
:102E900022601A0000F02AF8431C03D12368002B9B
:102EA00000D02B6070BDC046700E0020582201205B
:102EB000014B40421A607047700E002058220120DA
:102EC000014B40421A607047700E00205822024B9E
:102ED00000201A607047C046700E00205822012062
:102EE000014B40421A607047700E002058220120AA
:102EF000014B40421A607047700E0020044A13686C
:102F0000002B03D01818106018007047014BF9E728
:102F1000D40D0020780E0020F8B5C046F8BC08BCDF
:102F20009E467047F8B5C046F8BC08BC9E46704740
:102F3000982F00084903000800000000000000006E
:102F40008000000002030405060708090A0B0C0DA7
:102F50000E0F10100102030405060708090A0B0CE6
:102F60000D0E0F105372632F756172742E63000083
:102F700048656C6C6F20576F726C64200A0000000B
:102F80005372632F6D61696E2E6300005465737414
:102F9000205072696E74200064656661756C7454AB
:102FA00061736B0049444C450000000000000000C4
:102FB00000000000010203040607080900000000E9
:102FC000010203040C0000200000000000000000CB
:102FD00000000000000000000000000000000000F1
:102FE00000000000000000000000000000000000E1
:102FF00000000000000000000000000000000000D1
:1030000000000000000000000000000000000000C0
:1030100000000000000000000000000000000000B0
:083020000000000000000000A8
:04302800E9000008B3
:04302C00C1000008D7
:10303000AAAAAAAA00127A000C0000200000000030
:10304000E82F000808300008C82F00080000000022
:103050000000000000000000000000000000000070
:103060000000000000000000000000000000000060
:103070000000000000000000000000000000000050
:103080000000000000000000000000000000000040
:0C30900000000000000000000000000034
:04000005080024AD1E
:00000001FF
